{
  "_format": "hh-sol-artifact-1",
  "contractName": "Voting",
  "sourceName": "contracts/Voting.sol",
  "abi": [
    {
      "inputs": [],
      "stateMutability": "nonpayable",
      "type": "constructor"
    },
    {
      "anonymous": false,
      "inputs": [
        {
          "indexed": false,
          "internalType": "string",
          "name": "proposalName",
          "type": "string"
        }
      ],
      "name": "ProposalAdded",
      "type": "event"
    },
    {
      "inputs": [
        {
          "internalType": "string",
          "name": "proposalName",
          "type": "string"
        }
      ],
      "name": "addProposal",
      "outputs": [],
      "stateMutability": "nonpayable",
      "type": "function"
    },
    {
      "inputs": [],
      "name": "chairperson",
      "outputs": [
        {
          "internalType": "address",
          "name": "",
          "type": "address"
        }
      ],
      "stateMutability": "view",
      "type": "function"
    },
    {
      "inputs": [],
      "name": "getProposals",
      "outputs": [
        {
          "internalType": "string[]",
          "name": "names",
          "type": "string[]"
        },
        {
          "internalType": "uint256[]",
          "name": "voteCounts",
          "type": "uint256[]"
        }
      ],
      "stateMutability": "view",
      "type": "function"
    },
    {
      "inputs": [
        {
          "internalType": "address",
          "name": "voter",
          "type": "address"
        }
      ],
      "name": "giveRightToVote",
      "outputs": [],
      "stateMutability": "nonpayable",
      "type": "function"
    },
    {
      "inputs": [
        {
          "internalType": "uint256",
          "name": "",
          "type": "uint256"
        }
      ],
      "name": "proposals",
      "outputs": [
        {
          "internalType": "string",
          "name": "name",
          "type": "string"
        },
        {
          "internalType": "uint256",
          "name": "voteCount",
          "type": "uint256"
        }
      ],
      "stateMutability": "view",
      "type": "function"
    },
    {
      "inputs": [
        {
          "internalType": "uint256",
          "name": "proposal",
          "type": "uint256"
        }
      ],
      "name": "vote",
      "outputs": [],
      "stateMutability": "nonpayable",
      "type": "function"
    },
    {
      "inputs": [
        {
          "internalType": "address",
          "name": "",
          "type": "address"
        }
      ],
      "name": "voters",
      "outputs": [
        {
          "internalType": "bool",
          "name": "voted",
          "type": "bool"
        },
        {
          "internalType": "uint256",
          "name": "vote",
          "type": "uint256"
        },
        {
          "internalType": "uint256",
          "name": "weight",
          "type": "uint256"
        }
      ],
      "stateMutability": "view",
      "type": "function"
    },
    {
      "inputs": [],
      "name": "winnerName",
      "outputs": [
        {
          "internalType": "string",
          "name": "winnerName_",
          "type": "string"
        }
      ],
      "stateMutability": "view",
      "type": "function"
    },
    {
      "inputs": [],
      "name": "winningProposal",
      "outputs": [
        {
          "internalType": "uint256",
          "name": "winningProposal_",
          "type": "uint256"
        }
      ],
      "stateMutability": "view",
      "type": "function"
    }
  ],
  "bytecode": "0x608060405234801561001057600080fd5b50336000806101000a81548173ffffffffffffffffffffffffffffffffffffffff021916908373ffffffffffffffffffffffffffffffffffffffff16021790555060018060008060009054906101000a900473ffffffffffffffffffffffffffffffffffffffff1673ffffffffffffffffffffffffffffffffffffffff1673ffffffffffffffffffffffffffffffffffffffff1681526020019081526020016000206002018190555061161c806100c86000396000f3fe608060405234801561001057600080fd5b50600436106100935760003560e01c8063609ff1bd11610066578063609ff1bd1461011f57806362564c481461013d5780639e7b8d611461015c578063a3ec138d14610178578063e2ba53f0146101aa57610093565b80630121b93f14610098578063013cf08b146100b45780632e4176cf146100e55780632fdae3c514610103575b600080fd5b6100b260048036038101906100ad9190610a4f565b6101c8565b005b6100ce60048036038101906100c99190610a4f565b61030e565b6040516100dc929190610b1b565b60405180910390f35b6100ed6103ca565b6040516100fa9190610b8c565b60405180910390f35b61011d60048036038101906101189190610cdc565b6103ee565b005b610127610519565b6040516101349190610d25565b60405180910390f35b61014561059b565b604051610153929190610f0a565b60405180910390f35b61017660048036038101906101719190610f6d565b61075b565b005b610192600480360381019061018d9190610f6d565b610912565b6040516101a193929190610fb5565b60405180910390f35b6101b2610949565b6040516101bf9190610fec565b60405180910390f35b6000600160003373ffffffffffffffffffffffffffffffffffffffff1673ffffffffffffffffffffffffffffffffffffffff16815260200190815260200160002090506000816002015403610252576040517f08c379a00000000000000000000000000000000000000000000000000000000081526004016102499061105a565b60405180910390fd5b8060000160009054906101000a900460ff16156102a4576040517f08c379a000000000000000000000000000000000000000000000000000000000815260040161029b906110c6565b60405180910390fd5b60018160000160006101000a81548160ff0219169083151502179055508181600101819055508060020154600283815481106102e3576102e26110e6565b5b906000526020600020906002020160010160008282546103039190611144565b925050819055505050565b6002818154811061031e57600080fd5b9060005260206000209060020201600091509050806000018054610341906111a7565b80601f016020809104026020016040519081016040528092919081815260200182805461036d906111a7565b80156103ba5780601f1061038f576101008083540402835291602001916103ba565b820191906000526020600020905b81548152906001019060200180831161039d57829003601f168201915b5050505050908060010154905082565b60008054906101000a900473ffffffffffffffffffffffffffffffffffffffff1681565b60008054906101000a900473ffffffffffffffffffffffffffffffffffffffff1673ffffffffffffffffffffffffffffffffffffffff163373ffffffffffffffffffffffffffffffffffffffff161461047c576040517f08c379a00000000000000000000000000000000000000000000000000000000081526004016104739061124a565b60405180910390fd5b600260405180604001604052808381526020016000815250908060018154018082558091505060019003906000526020600020906002020160009091909190915060008201518160000190816104d29190611416565b506020820151816001015550507f7e462b77205d9bc889740e6a08a3415c6040322fa001a664ca7838319e80d5f98160405161050e9190610fec565b60405180910390a150565b6000806000905060005b600280549050811015610596578160028281548110610545576105446110e6565b5b90600052602060002090600202016001015411156105895760028181548110610571576105706110e6565b5b90600052602060002090600202016001015491508092505b8080600101915050610523565b505090565b60608060028054905067ffffffffffffffff8111156105bd576105bc610bb1565b5b6040519080825280602002602001820160405280156105f057816020015b60608152602001906001900390816105db5790505b50915060028054905067ffffffffffffffff81111561061257610611610bb1565b5b6040519080825280602002602001820160405280156106405781602001602082028036833780820191505090505b50905060005b60028054905081101561075657600060028281548110610669576106686110e6565b5b90600052602060002090600202019050806000018054610688906111a7565b80601f01602080910402602001604051908101604052809291908181526020018280546106b4906111a7565b80156107015780601f106106d657610100808354040283529160200191610701565b820191906000526020600020905b8154815290600101906020018083116106e457829003601f168201915b5050505050848381518110610719576107186110e6565b5b6020026020010181905250806001015483838151811061073c5761073b6110e6565b5b602002602001018181525050508080600101915050610646565b509091565b60008054906101000a900473ffffffffffffffffffffffffffffffffffffffff1673ffffffffffffffffffffffffffffffffffffffff163373ffffffffffffffffffffffffffffffffffffffff16146107e9576040517f08c379a00000000000000000000000000000000000000000000000000000000081526004016107e09061155a565b60405180910390fd5b600160008273ffffffffffffffffffffffffffffffffffffffff1673ffffffffffffffffffffffffffffffffffffffff16815260200190815260200160002060000160009054906101000a900460ff1615610879576040517f08c379a0000000000000000000000000000000000000000000000000000000008152600401610870906115c6565b60405180910390fd5b6000600160008373ffffffffffffffffffffffffffffffffffffffff1673ffffffffffffffffffffffffffffffffffffffff16815260200190815260200160002060020154146108c857600080fd5b60018060008373ffffffffffffffffffffffffffffffffffffffff1673ffffffffffffffffffffffffffffffffffffffff1681526020019081526020016000206002018190555050565b60016020528060005260406000206000915090508060000160009054906101000a900460ff16908060010154908060020154905083565b60606002610955610519565b81548110610966576109656110e6565b5b90600052602060002090600202016000018054610982906111a7565b80601f01602080910402602001604051908101604052809291908181526020018280546109ae906111a7565b80156109fb5780601f106109d0576101008083540402835291602001916109fb565b820191906000526020600020905b8154815290600101906020018083116109de57829003601f168201915b5050505050905090565b6000604051905090565b600080fd5b600080fd5b6000819050919050565b610a2c81610a19565b8114610a3757600080fd5b50565b600081359050610a4981610a23565b92915050565b600060208284031215610a6557610a64610a0f565b5b6000610a7384828501610a3a565b91505092915050565b600081519050919050565b600082825260208201905092915050565b60005b83811015610ab6578082015181840152602081019050610a9b565b60008484015250505050565b6000601f19601f8301169050919050565b6000610ade82610a7c565b610ae88185610a87565b9350610af8818560208601610a98565b610b0181610ac2565b840191505092915050565b610b1581610a19565b82525050565b60006040820190508181036000830152610b358185610ad3565b9050610b446020830184610b0c565b9392505050565b600073ffffffffffffffffffffffffffffffffffffffff82169050919050565b6000610b7682610b4b565b9050919050565b610b8681610b6b565b82525050565b6000602082019050610ba16000830184610b7d565b92915050565b600080fd5b600080fd5b7f4e487b7100000000000000000000000000000000000000000000000000000000600052604160045260246000fd5b610be982610ac2565b810181811067ffffffffffffffff82111715610c0857610c07610bb1565b5b80604052505050565b6000610c1b610a05565b9050610c278282610be0565b919050565b600067ffffffffffffffff821115610c4757610c46610bb1565b5b610c5082610ac2565b9050602081019050919050565b82818337600083830152505050565b6000610c7f610c7a84610c2c565b610c11565b905082815260208101848484011115610c9b57610c9a610bac565b5b610ca6848285610c5d565b509392505050565b600082601f830112610cc357610cc2610ba7565b5b8135610cd3848260208601610c6c565b91505092915050565b600060208284031215610cf257610cf1610a0f565b5b600082013567ffffffffffffffff811115610d1057610d0f610a14565b5b610d1c84828501610cae565b91505092915050565b6000602082019050610d3a6000830184610b0c565b92915050565b600081519050919050565b600082825260208201905092915050565b6000819050602082019050919050565b600082825260208201905092915050565b6000610d8882610a7c565b610d928185610d6c565b9350610da2818560208601610a98565b610dab81610ac2565b840191505092915050565b6000610dc28383610d7d565b905092915050565b6000602082019050919050565b6000610de282610d40565b610dec8185610d4b565b935083602082028501610dfe85610d5c565b8060005b85811015610e3a5784840389528151610e1b8582610db6565b9450610e2683610dca565b925060208a01995050600181019050610e02565b50829750879550505050505092915050565b600081519050919050565b600082825260208201905092915050565b6000819050602082019050919050565b610e8181610a19565b82525050565b6000610e938383610e78565b60208301905092915050565b6000602082019050919050565b6000610eb782610e4c565b610ec18185610e57565b9350610ecc83610e68565b8060005b83811015610efd578151610ee48882610e87565b9750610eef83610e9f565b925050600181019050610ed0565b5085935050505092915050565b60006040820190508181036000830152610f248185610dd7565b90508181036020830152610f388184610eac565b90509392505050565b610f4a81610b6b565b8114610f5557600080fd5b50565b600081359050610f6781610f41565b92915050565b600060208284031215610f8357610f82610a0f565b5b6000610f9184828501610f58565b91505092915050565b60008115159050919050565b610faf81610f9a565b82525050565b6000606082019050610fca6000830186610fa6565b610fd76020830185610b0c565b610fe46040830184610b0c565b949350505050565b600060208201905081810360008301526110068184610ad3565b905092915050565b7f486173206e6f20726967687420746f20766f74652e0000000000000000000000600082015250565b6000611044601583610a87565b915061104f8261100e565b602082019050919050565b6000602082019050818103600083015261107381611037565b9050919050565b7f416c726561647920766f7465642e000000000000000000000000000000000000600082015250565b60006110b0600e83610a87565b91506110bb8261107a565b602082019050919050565b600060208201905081810360008301526110df816110a3565b9050919050565b7f4e487b7100000000000000000000000000000000000000000000000000000000600052603260045260246000fd5b7f4e487b7100000000000000000000000000000000000000000000000000000000600052601160045260246000fd5b600061114f82610a19565b915061115a83610a19565b925082820190508082111561117257611171611115565b5b92915050565b7f4e487b7100000000000000000000000000000000000000000000000000000000600052602260045260246000fd5b600060028204905060018216806111bf57607f821691505b6020821081036111d2576111d1611178565b5b50919050565b7f4f6e6c79206368616972706572736f6e2063616e206164642070726f706f736160008201527f6c732e0000000000000000000000000000000000000000000000000000000000602082015250565b6000611234602383610a87565b915061123f826111d8565b604082019050919050565b6000602082019050818103600083015261126381611227565b9050919050565b60008190508160005260206000209050919050565b60006020601f8301049050919050565b600082821b905092915050565b6000600883026112cc7fffffffffffffffffffffffffffffffffffffffffffffffffffffffffffffffff8261128f565b6112d6868361128f565b95508019841693508086168417925050509392505050565b6000819050919050565b600061131361130e61130984610a19565b6112ee565b610a19565b9050919050565b6000819050919050565b61132d836112f8565b6113416113398261131a565b84845461129c565b825550505050565b600090565b611356611349565b611361818484611324565b505050565b5b818110156113855761137a60008261134e565b600181019050611367565b5050565b601f8211156113ca5761139b8161126a565b6113a48461127f565b810160208510156113b3578190505b6113c76113bf8561127f565b830182611366565b50505b505050565b600082821c905092915050565b60006113ed600019846008026113cf565b1980831691505092915050565b600061140683836113dc565b9150826002028217905092915050565b61141f82610a7c565b67ffffffffffffffff81111561143857611437610bb1565b5b61144282546111a7565b61144d828285611389565b600060209050601f831160018114611480576000841561146e578287015190505b61147885826113fa565b8655506114e0565b601f19841661148e8661126a565b60005b828110156114b657848901518255600182019150602085019450602081019050611491565b868310156114d357848901516114cf601f8916826113dc565b8355505b6001600288020188555050505b505050505050565b7f4f6e6c79206368616972706572736f6e2063616e20676976652072696768742060008201527f746f20766f74652e000000000000000000000000000000000000000000000000602082015250565b6000611544602883610a87565b915061154f826114e8565b604082019050919050565b6000602082019050818103600083015261157381611537565b9050919050565b7f54686520766f74657220616c726561647920766f7465642e0000000000000000600082015250565b60006115b0601883610a87565b91506115bb8261157a565b602082019050919050565b600060208201905081810360008301526115df816115a3565b905091905056fea26469706673582212206a0718606ed4f2f0c2c5953db48cb91da2903414a6027089741a3d9d9c83a32f64736f6c63430008180033",
  "linkReferences": {},
  "deployedLinkReferences": {}
}