{
  "_format": "hh-sol-artifact-1",
  "contractName": "Voting",
  "sourceName": "contracts/Voting.sol",
  "abi": [
    {
      "anonymous": false,
      "inputs": [
        {
          "indexed": false,
          "internalType": "string",
          "name": "proposalName",
          "type": "string"
        },
        {
          "indexed": false,
          "internalType": "string",
          "name": "proposalImage",
          "type": "string"
        }
      ],
      "name": "ProposalAdded",
      "type": "event"
    },
    {
      "anonymous": false,
      "inputs": [
        {
          "indexed": false,
          "internalType": "uint256",
          "name": "proposalIndex",
          "type": "uint256"
        }
      ],
      "name": "ProposalDeleted",
      "type": "event"
    },
    {
      "inputs": [
        {
          "internalType": "string",
          "name": "proposalName",
          "type": "string"
        },
        {
          "internalType": "string",
          "name": "proposalImage",
          "type": "string"
        }
      ],
      "name": "addProposal",
      "outputs": [],
      "stateMutability": "nonpayable",
      "type": "function"
    },
    {
      "inputs": [
        {
          "internalType": "uint256",
          "name": "_proposalIndex",
          "type": "uint256"
        }
      ],
      "name": "deleteProposal",
      "outputs": [],
      "stateMutability": "nonpayable",
      "type": "function"
    },
    {
      "inputs": [],
      "name": "getProposals",
      "outputs": [
        {
          "internalType": "string[]",
          "name": "names",
          "type": "string[]"
        },
        {
          "internalType": "string[]",
          "name": "images",
          "type": "string[]"
        },
        {
          "internalType": "uint256[]",
          "name": "voteCounts",
          "type": "uint256[]"
        }
      ],
      "stateMutability": "view",
      "type": "function"
    },
    {
      "inputs": [
        {
          "internalType": "uint256",
          "name": "",
          "type": "uint256"
        }
      ],
      "name": "proposals",
      "outputs": [
        {
          "internalType": "string",
          "name": "name",
          "type": "string"
        },
        {
          "internalType": "string",
          "name": "image",
          "type": "string"
        },
        {
          "internalType": "uint256",
          "name": "voteCount",
          "type": "uint256"
        }
      ],
      "stateMutability": "view",
      "type": "function"
    },
    {
      "inputs": [
        {
          "internalType": "uint256",
          "name": "_candidateIndex",
          "type": "uint256"
        }
      ],
      "name": "vote",
      "outputs": [],
      "stateMutability": "nonpayable",
      "type": "function"
    },
    {
      "inputs": [
        {
          "internalType": "address",
          "name": "",
          "type": "address"
        }
      ],
      "name": "voters",
      "outputs": [
        {
          "internalType": "bool",
          "name": "",
          "type": "bool"
        }
      ],
      "stateMutability": "view",
      "type": "function"
    },
    {
      "inputs": [],
      "name": "winnerName",
      "outputs": [
        {
          "internalType": "string",
          "name": "winnerName_",
          "type": "string"
        }
      ],
      "stateMutability": "view",
      "type": "function"
    },
    {
      "inputs": [],
      "name": "winningProposal",
      "outputs": [
        {
          "internalType": "uint256",
          "name": "winningProposal_",
          "type": "uint256"
        }
      ],
      "stateMutability": "view",
      "type": "function"
    }
  ],
  "bytecode": "0x608060405234801561001057600080fd5b5061182e806100206000396000f3fe608060405234801561001057600080fd5b50600436106100885760003560e01c806362564c481161005b57806362564c48146101155780638259d55314610135578063a3ec138d14610151578063e2ba53f01461018157610088565b80630121b93f1461008d578063013cf08b146100a957806323d1c95e146100db578063609ff1bd146100f7575b600080fd5b6100a760048036038101906100a29190610bc6565b61019f565b005b6100c360048036038101906100be9190610bc6565b610307565b6040516100d293929190610c92565b60405180910390f35b6100f560048036038101906100f09190610e0c565b610451565b005b6100ff610599565b60405161010c9190610e84565b60405180910390f35b61011d61061b565b60405161012c93929190611069565b60405180910390f35b61014f600480360381019061014a9190610bc6565b6108de565b005b61016b60048036038101906101669190611113565b610a43565b604051610178919061115b565b60405180910390f35b610189610a63565b6040516101969190611176565b60405180910390f35b6000803373ffffffffffffffffffffffffffffffffffffffff1673ffffffffffffffffffffffffffffffffffffffff16815260200190815260200160002060009054906101000a900460ff161561022b576040517f08c379a0000000000000000000000000000000000000000000000000000000008152600401610222906111e4565b60405180910390fd5b6001805490508110610272576040517f08c379a000000000000000000000000000000000000000000000000000000000815260040161026990611250565b60405180910390fd5b6001818154811061028657610285611270565b5b906000526020600020906003020160020160008154809291906102a8906112ce565b919050555060016000803373ffffffffffffffffffffffffffffffffffffffff1673ffffffffffffffffffffffffffffffffffffffff16815260200190815260200160002060006101000a81548160ff02191690831515021790555050565b6001818154811061031757600080fd5b906000526020600020906003020160009150905080600001805461033a90611345565b80601f016020809104026020016040519081016040528092919081815260200182805461036690611345565b80156103b35780601f10610388576101008083540402835291602001916103b3565b820191906000526020600020905b81548152906001019060200180831161039657829003601f168201915b5050505050908060010180546103c890611345565b80601f01602080910402602001604051908101604052809291908181526020018280546103f490611345565b80156104415780601f1061041657610100808354040283529160200191610441565b820191906000526020600020905b81548152906001019060200180831161042457829003601f168201915b5050505050908060020154905083565b6000803373ffffffffffffffffffffffffffffffffffffffff1673ffffffffffffffffffffffffffffffffffffffff16815260200190815260200160002060009054906101000a900460ff16156104dd576040517f08c379a00000000000000000000000000000000000000000000000000000000081526004016104d4906111e4565b60405180910390fd5b600160405180606001604052808481526020018381526020016000815250908060018154018082558091505060019003906000526020600020906003020160009091909190915060008201518160000190816105399190611522565b50602082015181600101908161054f9190611522565b506040820151816002015550507fe02ccca479e1173328e2dd02b3dc0d2bc08593f7d06756def0dc51decc0c1418828260405161058d9291906115f4565b60405180910390a15050565b6000806000905060005b6001805490508110156106165781600182815481106105c5576105c4611270565b5b906000526020600020906003020160020154111561060957600181815481106105f1576105f0611270565b5b90600052602060002090600302016002015491508092505b80806001019150506105a3565b505090565b606080606060018054905067ffffffffffffffff81111561063f5761063e610ce1565b5b60405190808252806020026020018201604052801561067257816020015b606081526020019060019003908161065d5790505b50925060018054905067ffffffffffffffff81111561069457610693610ce1565b5b6040519080825280602002602001820160405280156106c757816020015b60608152602001906001900390816106b25790505b50915060018054905067ffffffffffffffff8111156106e9576106e8610ce1565b5b6040519080825280602002602001820160405280156107175781602001602082028036833780820191505090505b50905060005b6001805490508110156108d8576000600182815481106107405761073f611270565b5b9060005260206000209060030201905080600001805461075f90611345565b80601f016020809104026020016040519081016040528092919081815260200182805461078b90611345565b80156107d85780601f106107ad576101008083540402835291602001916107d8565b820191906000526020600020905b8154815290600101906020018083116107bb57829003601f168201915b50505050508583815181106107f0576107ef611270565b5b602002602001018190525080600101805461080a90611345565b80601f016020809104026020016040519081016040528092919081815260200182805461083690611345565b80156108835780601f1061085857610100808354040283529160200191610883565b820191906000526020600020905b81548152906001019060200180831161086657829003601f168201915b505050505084838151811061089b5761089a611270565b5b602002602001018190525080600201548383815181106108be576108bd611270565b5b60200260200101818152505050808060010191505061071d565b50909192565b6001805490508110610925576040517f08c379a000000000000000000000000000000000000000000000000000000000815260040161091c90611677565b60405180910390fd5b6000600180805490506109389190611697565b90506001818154811061094e5761094d611270565b5b9060005260206000209060030201600183815481106109705761096f611270565b5b90600052602060002090600302016000820181600001908161099291906116e1565b50600182018160010190816109a791906116e1565b506002820154816002015590505060018054806109c7576109c66117c9565b5b6001900381819060005260206000209060030201600080820160006109ec9190610b1f565b6001820160006109fc9190610b1f565b6002820160009055505090557f61c0d93dc2b610877e420b107c8d12e9185e46e04a505da758cc7f7329ae545f82604051610a379190610e84565b60405180910390a15050565b60006020528060005260406000206000915054906101000a900460ff1681565b60606001610a6f610599565b81548110610a8057610a7f611270565b5b90600052602060002090600302016000018054610a9c90611345565b80601f0160208091040260200160405190810160405280929190818152602001828054610ac890611345565b8015610b155780601f10610aea57610100808354040283529160200191610b15565b820191906000526020600020905b815481529060010190602001808311610af857829003601f168201915b5050505050905090565b508054610b2b90611345565b6000825580601f10610b3d5750610b5c565b601f016020900490600052602060002090810190610b5b9190610b5f565b5b50565b5b80821115610b78576000816000905550600101610b60565b5090565b6000604051905090565b600080fd5b600080fd5b6000819050919050565b610ba381610b90565b8114610bae57600080fd5b50565b600081359050610bc081610b9a565b92915050565b600060208284031215610bdc57610bdb610b86565b5b6000610bea84828501610bb1565b91505092915050565b600081519050919050565b600082825260208201905092915050565b60005b83811015610c2d578082015181840152602081019050610c12565b60008484015250505050565b6000601f19601f8301169050919050565b6000610c5582610bf3565b610c5f8185610bfe565b9350610c6f818560208601610c0f565b610c7881610c39565b840191505092915050565b610c8c81610b90565b82525050565b60006060820190508181036000830152610cac8186610c4a565b90508181036020830152610cc08185610c4a565b9050610ccf6040830184610c83565b949350505050565b600080fd5b600080fd5b7f4e487b7100000000000000000000000000000000000000000000000000000000600052604160045260246000fd5b610d1982610c39565b810181811067ffffffffffffffff82111715610d3857610d37610ce1565b5b80604052505050565b6000610d4b610b7c565b9050610d578282610d10565b919050565b600067ffffffffffffffff821115610d7757610d76610ce1565b5b610d8082610c39565b9050602081019050919050565b82818337600083830152505050565b6000610daf610daa84610d5c565b610d41565b905082815260208101848484011115610dcb57610dca610cdc565b5b610dd6848285610d8d565b509392505050565b600082601f830112610df357610df2610cd7565b5b8135610e03848260208601610d9c565b91505092915050565b60008060408385031215610e2357610e22610b86565b5b600083013567ffffffffffffffff811115610e4157610e40610b8b565b5b610e4d85828601610dde565b925050602083013567ffffffffffffffff811115610e6e57610e6d610b8b565b5b610e7a85828601610dde565b9150509250929050565b6000602082019050610e996000830184610c83565b92915050565b600081519050919050565b600082825260208201905092915050565b6000819050602082019050919050565b600082825260208201905092915050565b6000610ee782610bf3565b610ef18185610ecb565b9350610f01818560208601610c0f565b610f0a81610c39565b840191505092915050565b6000610f218383610edc565b905092915050565b6000602082019050919050565b6000610f4182610e9f565b610f4b8185610eaa565b935083602082028501610f5d85610ebb565b8060005b85811015610f995784840389528151610f7a8582610f15565b9450610f8583610f29565b925060208a01995050600181019050610f61565b50829750879550505050505092915050565b600081519050919050565b600082825260208201905092915050565b6000819050602082019050919050565b610fe081610b90565b82525050565b6000610ff28383610fd7565b60208301905092915050565b6000602082019050919050565b600061101682610fab565b6110208185610fb6565b935061102b83610fc7565b8060005b8381101561105c5781516110438882610fe6565b975061104e83610ffe565b92505060018101905061102f565b5085935050505092915050565b600060608201905081810360008301526110838186610f36565b905081810360208301526110978185610f36565b905081810360408301526110ab818461100b565b9050949350505050565b600073ffffffffffffffffffffffffffffffffffffffff82169050919050565b60006110e0826110b5565b9050919050565b6110f0816110d5565b81146110fb57600080fd5b50565b60008135905061110d816110e7565b92915050565b60006020828403121561112957611128610b86565b5b6000611137848285016110fe565b91505092915050565b60008115159050919050565b61115581611140565b82525050565b6000602082019050611170600083018461114c565b92915050565b600060208201905081810360008301526111908184610c4a565b905092915050565b7f596f75206861766520616c726561647920766f7465642e000000000000000000600082015250565b60006111ce601783610bfe565b91506111d982611198565b602082019050919050565b600060208201905081810360008301526111fd816111c1565b9050919050565b7f496e76616c69642063616e64696461746520696e6465782e0000000000000000600082015250565b600061123a601883610bfe565b915061124582611204565b602082019050919050565b600060208201905081810360008301526112698161122d565b9050919050565b7f4e487b7100000000000000000000000000000000000000000000000000000000600052603260045260246000fd5b7f4e487b7100000000000000000000000000000000000000000000000000000000600052601160045260246000fd5b60006112d982610b90565b91507fffffffffffffffffffffffffffffffffffffffffffffffffffffffffffffffff820361130b5761130a61129f565b5b600182019050919050565b7f4e487b7100000000000000000000000000000000000000000000000000000000600052602260045260246000fd5b6000600282049050600182168061135d57607f821691505b6020821081036113705761136f611316565b5b50919050565b60008190508160005260206000209050919050565b60006020601f8301049050919050565b600082821b905092915050565b6000600883026113d87fffffffffffffffffffffffffffffffffffffffffffffffffffffffffffffffff8261139b565b6113e2868361139b565b95508019841693508086168417925050509392505050565b6000819050919050565b600061141f61141a61141584610b90565b6113fa565b610b90565b9050919050565b6000819050919050565b61143983611404565b61144d61144582611426565b8484546113a8565b825550505050565b600090565b611462611455565b61146d818484611430565b505050565b5b818110156114915761148660008261145a565b600181019050611473565b5050565b601f8211156114d6576114a781611376565b6114b08461138b565b810160208510156114bf578190505b6114d36114cb8561138b565b830182611472565b50505b505050565b600082821c905092915050565b60006114f9600019846008026114db565b1980831691505092915050565b600061151283836114e8565b9150826002028217905092915050565b61152b82610bf3565b67ffffffffffffffff81111561154457611543610ce1565b5b61154e8254611345565b611559828285611495565b600060209050601f83116001811461158c576000841561157a578287015190505b6115848582611506565b8655506115ec565b601f19841661159a86611376565b60005b828110156115c25784890151825560018201915060208501945060208101905061159d565b868310156115df57848901516115db601f8916826114e8565b8355505b6001600288020188555050505b505050505050565b6000604082019050818103600083015261160e8185610c4a565b905081810360208301526116228184610c4a565b90509392505050565b7f496e76616c69642070726f706f73616c20696e64657800000000000000000000600082015250565b6000611661601683610bfe565b915061166c8261162b565b602082019050919050565b6000602082019050818103600083015261169081611654565b9050919050565b60006116a282610b90565b91506116ad83610b90565b92508282039050818111156116c5576116c461129f565b5b92915050565b6000815490506116da81611345565b9050919050565b8181036116ef5750506117c7565b6116f8826116cb565b67ffffffffffffffff81111561171157611710610ce1565b5b61171b8254611345565b611726828285611495565b6000601f8311600181146117555760008415611743578287015490505b61174d8582611506565b8655506117c0565b601f19841661176387611376565b965061176e86611376565b60005b8281101561179657848901548255600182019150600185019450602081019050611771565b868310156117b357848901546117af601f8916826114e8565b8355505b6001600288020188555050505b5050505050505b565b7f4e487b7100000000000000000000000000000000000000000000000000000000600052603160045260246000fdfea264697066735822122000d678158d5868f538e3b73d1ed081e80efdbc5af892c49c921fadbb00f09c6564736f6c63430008180033",
  "linkReferences": {},
  "deployedLinkReferences": {}
}