{
  "_format": "hh-sol-artifact-1",
  "contractName": "Voting",
  "sourceName": "contracts/Voting.sol",
  "abi": [
    {
      "inputs": [],
      "stateMutability": "nonpayable",
      "type": "constructor"
    },
    {
      "anonymous": false,
      "inputs": [
        {
          "indexed": false,
          "internalType": "string",
          "name": "proposalName",
          "type": "string"
        },
        {
          "indexed": false,
          "internalType": "string",
          "name": "proposalImage",
          "type": "string"
        }
      ],
      "name": "ProposalAdded",
      "type": "event"
    },
    {
      "inputs": [
        {
          "internalType": "string",
          "name": "proposalName",
          "type": "string"
        },
        {
          "internalType": "string",
          "name": "proposalImage",
          "type": "string"
        }
      ],
      "name": "addProposal",
      "outputs": [],
      "stateMutability": "nonpayable",
      "type": "function"
    },
    {
      "inputs": [],
      "name": "chairperson",
      "outputs": [
        {
          "internalType": "address",
          "name": "",
          "type": "address"
        }
      ],
      "stateMutability": "view",
      "type": "function"
    },
    {
      "inputs": [],
      "name": "getProposals",
      "outputs": [
        {
          "internalType": "string[]",
          "name": "names",
          "type": "string[]"
        },
        {
          "internalType": "string[]",
          "name": "images",
          "type": "string[]"
        },
        {
          "internalType": "uint256[]",
          "name": "voteCounts",
          "type": "uint256[]"
        }
      ],
      "stateMutability": "view",
      "type": "function"
    },
    {
      "inputs": [
        {
          "internalType": "address",
          "name": "voter",
          "type": "address"
        }
      ],
      "name": "giveRightToVote",
      "outputs": [],
      "stateMutability": "nonpayable",
      "type": "function"
    },
    {
      "inputs": [
        {
          "internalType": "uint256",
          "name": "",
          "type": "uint256"
        }
      ],
      "name": "proposals",
      "outputs": [
        {
          "internalType": "string",
          "name": "name",
          "type": "string"
        },
        {
          "internalType": "string",
          "name": "image",
          "type": "string"
        },
        {
          "internalType": "uint256",
          "name": "voteCount",
          "type": "uint256"
        }
      ],
      "stateMutability": "view",
      "type": "function"
    },
    {
      "inputs": [
        {
          "internalType": "uint256",
          "name": "proposal",
          "type": "uint256"
        }
      ],
      "name": "vote",
      "outputs": [],
      "stateMutability": "nonpayable",
      "type": "function"
    },
    {
      "inputs": [
        {
          "internalType": "address",
          "name": "",
          "type": "address"
        }
      ],
      "name": "voters",
      "outputs": [
        {
          "internalType": "bool",
          "name": "voted",
          "type": "bool"
        },
        {
          "internalType": "uint256",
          "name": "vote",
          "type": "uint256"
        },
        {
          "internalType": "uint256",
          "name": "weight",
          "type": "uint256"
        }
      ],
      "stateMutability": "view",
      "type": "function"
    },
    {
      "inputs": [],
      "name": "winnerName",
      "outputs": [
        {
          "internalType": "string",
          "name": "winnerName_",
          "type": "string"
        }
      ],
      "stateMutability": "view",
      "type": "function"
    },
    {
      "inputs": [],
      "name": "winningProposal",
      "outputs": [
        {
          "internalType": "uint256",
          "name": "winningProposal_",
          "type": "uint256"
        }
      ],
      "stateMutability": "view",
      "type": "function"
    }
  ],
  "bytecode": "0x608060405234801561001057600080fd5b50336000806101000a81548173ffffffffffffffffffffffffffffffffffffffff021916908373ffffffffffffffffffffffffffffffffffffffff16021790555060018060008060009054906101000a900473ffffffffffffffffffffffffffffffffffffffff1673ffffffffffffffffffffffffffffffffffffffff1673ffffffffffffffffffffffffffffffffffffffff1681526020019081526020016000206002018190555061185e806100c86000396000f3fe608060405234801561001057600080fd5b50600436106100935760003560e01c8063609ff1bd11610066578063609ff1bd1461012057806362564c481461013e5780639e7b8d611461015e578063a3ec138d1461017a578063e2ba53f0146101ac57610093565b80630121b93f14610098578063013cf08b146100b457806323d1c95e146100e65780632e4176cf14610102575b600080fd5b6100b260048036038101906100ad9190610c01565b6101ca565b005b6100ce60048036038101906100c99190610c01565b610310565b6040516100dd93929190610ccd565b60405180910390f35b61010060048036038101906100fb9190610e47565b61045a565b005b61010a6105a4565b6040516101179190610f00565b60405180910390f35b6101286105c8565b6040516101359190610f1b565b60405180910390f35b61014661064a565b60405161015593929190611100565b60405180910390f35b61017860048036038101906101739190611178565b61090d565b005b610194600480360381019061018f9190611178565b610ac4565b6040516101a3939291906111c0565b60405180910390f35b6101b4610afb565b6040516101c191906111f7565b60405180910390f35b6000600160003373ffffffffffffffffffffffffffffffffffffffff1673ffffffffffffffffffffffffffffffffffffffff16815260200190815260200160002090506000816002015403610254576040517f08c379a000000000000000000000000000000000000000000000000000000000815260040161024b90611265565b60405180910390fd5b8060000160009054906101000a900460ff16156102a6576040517f08c379a000000000000000000000000000000000000000000000000000000000815260040161029d906112d1565b60405180910390fd5b60018160000160006101000a81548160ff0219169083151502179055508181600101819055508060020154600283815481106102e5576102e46112f1565b5b90600052602060002090600302016002016000828254610305919061134f565b925050819055505050565b6002818154811061032057600080fd5b9060005260206000209060030201600091509050806000018054610343906113b2565b80601f016020809104026020016040519081016040528092919081815260200182805461036f906113b2565b80156103bc5780601f10610391576101008083540402835291602001916103bc565b820191906000526020600020905b81548152906001019060200180831161039f57829003601f168201915b5050505050908060010180546103d1906113b2565b80601f01602080910402602001604051908101604052809291908181526020018280546103fd906113b2565b801561044a5780601f1061041f5761010080835404028352916020019161044a565b820191906000526020600020905b81548152906001019060200180831161042d57829003601f168201915b5050505050908060020154905083565b60008054906101000a900473ffffffffffffffffffffffffffffffffffffffff1673ffffffffffffffffffffffffffffffffffffffff163373ffffffffffffffffffffffffffffffffffffffff16146104e8576040517f08c379a00000000000000000000000000000000000000000000000000000000081526004016104df90611455565b60405180910390fd5b600260405180606001604052808481526020018381526020016000815250908060018154018082558091505060019003906000526020600020906003020160009091909190915060008201518160000190816105449190611621565b50602082015181600101908161055a9190611621565b506040820151816002015550507fe02ccca479e1173328e2dd02b3dc0d2bc08593f7d06756def0dc51decc0c141882826040516105989291906116f3565b60405180910390a15050565b60008054906101000a900473ffffffffffffffffffffffffffffffffffffffff1681565b6000806000905060005b6002805490508110156106455781600282815481106105f4576105f36112f1565b5b906000526020600020906003020160020154111561063857600281815481106106205761061f6112f1565b5b90600052602060002090600302016002015491508092505b80806001019150506105d2565b505090565b606080606060028054905067ffffffffffffffff81111561066e5761066d610d1c565b5b6040519080825280602002602001820160405280156106a157816020015b606081526020019060019003908161068c5790505b50925060028054905067ffffffffffffffff8111156106c3576106c2610d1c565b5b6040519080825280602002602001820160405280156106f657816020015b60608152602001906001900390816106e15790505b50915060028054905067ffffffffffffffff81111561071857610717610d1c565b5b6040519080825280602002602001820160405280156107465781602001602082028036833780820191505090505b50905060005b6002805490508110156109075760006002828154811061076f5761076e6112f1565b5b9060005260206000209060030201905080600001805461078e906113b2565b80601f01602080910402602001604051908101604052809291908181526020018280546107ba906113b2565b80156108075780601f106107dc57610100808354040283529160200191610807565b820191906000526020600020905b8154815290600101906020018083116107ea57829003601f168201915b505050505085838151811061081f5761081e6112f1565b5b6020026020010181905250806001018054610839906113b2565b80601f0160208091040260200160405190810160405280929190818152602001828054610865906113b2565b80156108b25780601f10610887576101008083540402835291602001916108b2565b820191906000526020600020905b81548152906001019060200180831161089557829003601f168201915b50505050508483815181106108ca576108c96112f1565b5b602002602001018190525080600201548383815181106108ed576108ec6112f1565b5b60200260200101818152505050808060010191505061074c565b50909192565b60008054906101000a900473ffffffffffffffffffffffffffffffffffffffff1673ffffffffffffffffffffffffffffffffffffffff163373ffffffffffffffffffffffffffffffffffffffff161461099b576040517f08c379a00000000000000000000000000000000000000000000000000000000081526004016109929061179c565b60405180910390fd5b600160008273ffffffffffffffffffffffffffffffffffffffff1673ffffffffffffffffffffffffffffffffffffffff16815260200190815260200160002060000160009054906101000a900460ff1615610a2b576040517f08c379a0000000000000000000000000000000000000000000000000000000008152600401610a2290611808565b60405180910390fd5b6000600160008373ffffffffffffffffffffffffffffffffffffffff1673ffffffffffffffffffffffffffffffffffffffff1681526020019081526020016000206002015414610a7a57600080fd5b60018060008373ffffffffffffffffffffffffffffffffffffffff1673ffffffffffffffffffffffffffffffffffffffff1681526020019081526020016000206002018190555050565b60016020528060005260406000206000915090508060000160009054906101000a900460ff16908060010154908060020154905083565b60606002610b076105c8565b81548110610b1857610b176112f1565b5b90600052602060002090600302016000018054610b34906113b2565b80601f0160208091040260200160405190810160405280929190818152602001828054610b60906113b2565b8015610bad5780601f10610b8257610100808354040283529160200191610bad565b820191906000526020600020905b815481529060010190602001808311610b9057829003601f168201915b5050505050905090565b6000604051905090565b600080fd5b600080fd5b6000819050919050565b610bde81610bcb565b8114610be957600080fd5b50565b600081359050610bfb81610bd5565b92915050565b600060208284031215610c1757610c16610bc1565b5b6000610c2584828501610bec565b91505092915050565b600081519050919050565b600082825260208201905092915050565b60005b83811015610c68578082015181840152602081019050610c4d565b60008484015250505050565b6000601f19601f8301169050919050565b6000610c9082610c2e565b610c9a8185610c39565b9350610caa818560208601610c4a565b610cb381610c74565b840191505092915050565b610cc781610bcb565b82525050565b60006060820190508181036000830152610ce78186610c85565b90508181036020830152610cfb8185610c85565b9050610d0a6040830184610cbe565b949350505050565b600080fd5b600080fd5b7f4e487b7100000000000000000000000000000000000000000000000000000000600052604160045260246000fd5b610d5482610c74565b810181811067ffffffffffffffff82111715610d7357610d72610d1c565b5b80604052505050565b6000610d86610bb7565b9050610d928282610d4b565b919050565b600067ffffffffffffffff821115610db257610db1610d1c565b5b610dbb82610c74565b9050602081019050919050565b82818337600083830152505050565b6000610dea610de584610d97565b610d7c565b905082815260208101848484011115610e0657610e05610d17565b5b610e11848285610dc8565b509392505050565b600082601f830112610e2e57610e2d610d12565b5b8135610e3e848260208601610dd7565b91505092915050565b60008060408385031215610e5e57610e5d610bc1565b5b600083013567ffffffffffffffff811115610e7c57610e7b610bc6565b5b610e8885828601610e19565b925050602083013567ffffffffffffffff811115610ea957610ea8610bc6565b5b610eb585828601610e19565b9150509250929050565b600073ffffffffffffffffffffffffffffffffffffffff82169050919050565b6000610eea82610ebf565b9050919050565b610efa81610edf565b82525050565b6000602082019050610f156000830184610ef1565b92915050565b6000602082019050610f306000830184610cbe565b92915050565b600081519050919050565b600082825260208201905092915050565b6000819050602082019050919050565b600082825260208201905092915050565b6000610f7e82610c2e565b610f888185610f62565b9350610f98818560208601610c4a565b610fa181610c74565b840191505092915050565b6000610fb88383610f73565b905092915050565b6000602082019050919050565b6000610fd882610f36565b610fe28185610f41565b935083602082028501610ff485610f52565b8060005b8581101561103057848403895281516110118582610fac565b945061101c83610fc0565b925060208a01995050600181019050610ff8565b50829750879550505050505092915050565b600081519050919050565b600082825260208201905092915050565b6000819050602082019050919050565b61107781610bcb565b82525050565b6000611089838361106e565b60208301905092915050565b6000602082019050919050565b60006110ad82611042565b6110b7818561104d565b93506110c28361105e565b8060005b838110156110f35781516110da888261107d565b97506110e583611095565b9250506001810190506110c6565b5085935050505092915050565b6000606082019050818103600083015261111a8186610fcd565b9050818103602083015261112e8185610fcd565b9050818103604083015261114281846110a2565b9050949350505050565b61115581610edf565b811461116057600080fd5b50565b6000813590506111728161114c565b92915050565b60006020828403121561118e5761118d610bc1565b5b600061119c84828501611163565b91505092915050565b60008115159050919050565b6111ba816111a5565b82525050565b60006060820190506111d560008301866111b1565b6111e26020830185610cbe565b6111ef6040830184610cbe565b949350505050565b600060208201905081810360008301526112118184610c85565b905092915050565b7f486173206e6f20726967687420746f20766f74652e0000000000000000000000600082015250565b600061124f601583610c39565b915061125a82611219565b602082019050919050565b6000602082019050818103600083015261127e81611242565b9050919050565b7f416c726561647920766f7465642e000000000000000000000000000000000000600082015250565b60006112bb600e83610c39565b91506112c682611285565b602082019050919050565b600060208201905081810360008301526112ea816112ae565b9050919050565b7f4e487b7100000000000000000000000000000000000000000000000000000000600052603260045260246000fd5b7f4e487b7100000000000000000000000000000000000000000000000000000000600052601160045260246000fd5b600061135a82610bcb565b915061136583610bcb565b925082820190508082111561137d5761137c611320565b5b92915050565b7f4e487b7100000000000000000000000000000000000000000000000000000000600052602260045260246000fd5b600060028204905060018216806113ca57607f821691505b6020821081036113dd576113dc611383565b5b50919050565b7f4f6e6c79206368616972706572736f6e2063616e206164642070726f706f736160008201527f6c732e0000000000000000000000000000000000000000000000000000000000602082015250565b600061143f602383610c39565b915061144a826113e3565b604082019050919050565b6000602082019050818103600083015261146e81611432565b9050919050565b60008190508160005260206000209050919050565b60006020601f8301049050919050565b600082821b905092915050565b6000600883026114d77fffffffffffffffffffffffffffffffffffffffffffffffffffffffffffffffff8261149a565b6114e1868361149a565b95508019841693508086168417925050509392505050565b6000819050919050565b600061151e61151961151484610bcb565b6114f9565b610bcb565b9050919050565b6000819050919050565b61153883611503565b61154c61154482611525565b8484546114a7565b825550505050565b600090565b611561611554565b61156c81848461152f565b505050565b5b8181101561159057611585600082611559565b600181019050611572565b5050565b601f8211156115d5576115a681611475565b6115af8461148a565b810160208510156115be578190505b6115d26115ca8561148a565b830182611571565b50505b505050565b600082821c905092915050565b60006115f8600019846008026115da565b1980831691505092915050565b600061161183836115e7565b9150826002028217905092915050565b61162a82610c2e565b67ffffffffffffffff81111561164357611642610d1c565b5b61164d82546113b2565b611658828285611594565b600060209050601f83116001811461168b5760008415611679578287015190505b6116838582611605565b8655506116eb565b601f19841661169986611475565b60005b828110156116c15784890151825560018201915060208501945060208101905061169c565b868310156116de57848901516116da601f8916826115e7565b8355505b6001600288020188555050505b505050505050565b6000604082019050818103600083015261170d8185610c85565b905081810360208301526117218184610c85565b90509392505050565b7f4f6e6c79206368616972706572736f6e2063616e20676976652072696768742060008201527f746f20766f74652e000000000000000000000000000000000000000000000000602082015250565b6000611786602883610c39565b91506117918261172a565b604082019050919050565b600060208201905081810360008301526117b581611779565b9050919050565b7f54686520766f74657220616c726561647920766f7465642e0000000000000000600082015250565b60006117f2601883610c39565b91506117fd826117bc565b602082019050919050565b60006020820190508181036000830152611821816117e5565b905091905056fea26469706673582212200632cf10d5277722a1d73f08ef7fb1a19e9e9be133520f0bb09cbdc1ea1e1c2764736f6c63430008180033",
  "linkReferences": {},
  "deployedLinkReferences": {}
}