{
  "_format": "hh-sol-artifact-1",
  "contractName": "Voting",
  "sourceName": "contracts/Voting.sol",
  "abi": [
    {
      "anonymous": false,
      "inputs": [
        {
          "indexed": false,
          "internalType": "string",
          "name": "proposalName",
          "type": "string"
        },
        {
          "indexed": false,
          "internalType": "string",
          "name": "proposalImage",
          "type": "string"
        }
      ],
      "name": "ProposalAdded",
      "type": "event"
    },
    {
      "inputs": [
        {
          "internalType": "string",
          "name": "proposalName",
          "type": "string"
        },
        {
          "internalType": "string",
          "name": "proposalImage",
          "type": "string"
        }
      ],
      "name": "addProposal",
      "outputs": [],
      "stateMutability": "nonpayable",
      "type": "function"
    },
    {
      "inputs": [],
      "name": "getProposals",
      "outputs": [
        {
          "internalType": "string[]",
          "name": "names",
          "type": "string[]"
        },
        {
          "internalType": "string[]",
          "name": "images",
          "type": "string[]"
        },
        {
          "internalType": "uint256[]",
          "name": "voteCounts",
          "type": "uint256[]"
        }
      ],
      "stateMutability": "view",
      "type": "function"
    },
    {
      "inputs": [
        {
          "internalType": "uint256",
          "name": "",
          "type": "uint256"
        }
      ],
      "name": "proposals",
      "outputs": [
        {
          "internalType": "string",
          "name": "name",
          "type": "string"
        },
        {
          "internalType": "string",
          "name": "image",
          "type": "string"
        },
        {
          "internalType": "uint256",
          "name": "voteCount",
          "type": "uint256"
        }
      ],
      "stateMutability": "view",
      "type": "function"
    },
    {
      "inputs": [
        {
          "internalType": "uint256",
          "name": "_candidateIndex",
          "type": "uint256"
        }
      ],
      "name": "vote",
      "outputs": [],
      "stateMutability": "nonpayable",
      "type": "function"
    },
    {
      "inputs": [
        {
          "internalType": "address",
          "name": "",
          "type": "address"
        }
      ],
      "name": "voters",
      "outputs": [
        {
          "internalType": "bool",
          "name": "",
          "type": "bool"
        }
      ],
      "stateMutability": "view",
      "type": "function"
    },
    {
      "inputs": [],
      "name": "winnerName",
      "outputs": [
        {
          "internalType": "string",
          "name": "winnerName_",
          "type": "string"
        }
      ],
      "stateMutability": "view",
      "type": "function"
    },
    {
      "inputs": [],
      "name": "winningProposal",
      "outputs": [
        {
          "internalType": "uint256",
          "name": "winningProposal_",
          "type": "uint256"
        }
      ],
      "stateMutability": "view",
      "type": "function"
    }
  ],
  "bytecode": "0x608060405234801561001057600080fd5b50611478806100206000396000f3fe608060405234801561001057600080fd5b506004361061007d5760003560e01c8063609ff1bd1161005b578063609ff1bd146100ec57806362564c481461010a578063a3ec138d1461012a578063e2ba53f01461015a5761007d565b80630121b93f14610082578063013cf08b1461009e57806323d1c95e146100d0575b600080fd5b61009c600480360381019061009791906109dd565b610178565b005b6100b860048036038101906100b391906109dd565b6102e0565b6040516100c793929190610aa9565b60405180910390f35b6100ea60048036038101906100e59190610c23565b61042a565b005b6100f4610572565b6040516101019190610c9b565b60405180910390f35b6101126105f4565b60405161012193929190610e80565b60405180910390f35b610144600480360381019061013f9190610f2a565b6108b7565b6040516101519190610f72565b60405180910390f35b6101626108d7565b60405161016f9190610f8d565b60405180910390f35b6000803373ffffffffffffffffffffffffffffffffffffffff1673ffffffffffffffffffffffffffffffffffffffff16815260200190815260200160002060009054906101000a900460ff1615610204576040517f08c379a00000000000000000000000000000000000000000000000000000000081526004016101fb90610ffb565b60405180910390fd5b600180549050811061024b576040517f08c379a000000000000000000000000000000000000000000000000000000000815260040161024290611067565b60405180910390fd5b6001818154811061025f5761025e611087565b5b90600052602060002090600302016002016000815480929190610281906110e5565b919050555060016000803373ffffffffffffffffffffffffffffffffffffffff1673ffffffffffffffffffffffffffffffffffffffff16815260200190815260200160002060006101000a81548160ff02191690831515021790555050565b600181815481106102f057600080fd5b90600052602060002090600302016000915090508060000180546103139061115c565b80601f016020809104026020016040519081016040528092919081815260200182805461033f9061115c565b801561038c5780601f106103615761010080835404028352916020019161038c565b820191906000526020600020905b81548152906001019060200180831161036f57829003601f168201915b5050505050908060010180546103a19061115c565b80601f01602080910402602001604051908101604052809291908181526020018280546103cd9061115c565b801561041a5780601f106103ef5761010080835404028352916020019161041a565b820191906000526020600020905b8154815290600101906020018083116103fd57829003601f168201915b5050505050908060020154905083565b6000803373ffffffffffffffffffffffffffffffffffffffff1673ffffffffffffffffffffffffffffffffffffffff16815260200190815260200160002060009054906101000a900460ff16156104b6576040517f08c379a00000000000000000000000000000000000000000000000000000000081526004016104ad90610ffb565b60405180910390fd5b600160405180606001604052808481526020018381526020016000815250908060018154018082558091505060019003906000526020600020906003020160009091909190915060008201518160000190816105129190611339565b5060208201518160010190816105289190611339565b506040820151816002015550507fe02ccca479e1173328e2dd02b3dc0d2bc08593f7d06756def0dc51decc0c1418828260405161056692919061140b565b60405180910390a15050565b6000806000905060005b6001805490508110156105ef57816001828154811061059e5761059d611087565b5b90600052602060002090600302016002015411156105e257600181815481106105ca576105c9611087565b5b90600052602060002090600302016002015491508092505b808060010191505061057c565b505090565b606080606060018054905067ffffffffffffffff81111561061857610617610af8565b5b60405190808252806020026020018201604052801561064b57816020015b60608152602001906001900390816106365790505b50925060018054905067ffffffffffffffff81111561066d5761066c610af8565b5b6040519080825280602002602001820160405280156106a057816020015b606081526020019060019003908161068b5790505b50915060018054905067ffffffffffffffff8111156106c2576106c1610af8565b5b6040519080825280602002602001820160405280156106f05781602001602082028036833780820191505090505b50905060005b6001805490508110156108b15760006001828154811061071957610718611087565b5b906000526020600020906003020190508060000180546107389061115c565b80601f01602080910402602001604051908101604052809291908181526020018280546107649061115c565b80156107b15780601f10610786576101008083540402835291602001916107b1565b820191906000526020600020905b81548152906001019060200180831161079457829003601f168201915b50505050508583815181106107c9576107c8611087565b5b60200260200101819052508060010180546107e39061115c565b80601f016020809104026020016040519081016040528092919081815260200182805461080f9061115c565b801561085c5780601f106108315761010080835404028352916020019161085c565b820191906000526020600020905b81548152906001019060200180831161083f57829003601f168201915b505050505084838151811061087457610873611087565b5b6020026020010181905250806002015483838151811061089757610896611087565b5b6020026020010181815250505080806001019150506106f6565b50909192565b60006020528060005260406000206000915054906101000a900460ff1681565b606060016108e3610572565b815481106108f4576108f3611087565b5b906000526020600020906003020160000180546109109061115c565b80601f016020809104026020016040519081016040528092919081815260200182805461093c9061115c565b80156109895780601f1061095e57610100808354040283529160200191610989565b820191906000526020600020905b81548152906001019060200180831161096c57829003601f168201915b5050505050905090565b6000604051905090565b600080fd5b600080fd5b6000819050919050565b6109ba816109a7565b81146109c557600080fd5b50565b6000813590506109d7816109b1565b92915050565b6000602082840312156109f3576109f261099d565b5b6000610a01848285016109c8565b91505092915050565b600081519050919050565b600082825260208201905092915050565b60005b83811015610a44578082015181840152602081019050610a29565b60008484015250505050565b6000601f19601f8301169050919050565b6000610a6c82610a0a565b610a768185610a15565b9350610a86818560208601610a26565b610a8f81610a50565b840191505092915050565b610aa3816109a7565b82525050565b60006060820190508181036000830152610ac38186610a61565b90508181036020830152610ad78185610a61565b9050610ae66040830184610a9a565b949350505050565b600080fd5b600080fd5b7f4e487b7100000000000000000000000000000000000000000000000000000000600052604160045260246000fd5b610b3082610a50565b810181811067ffffffffffffffff82111715610b4f57610b4e610af8565b5b80604052505050565b6000610b62610993565b9050610b6e8282610b27565b919050565b600067ffffffffffffffff821115610b8e57610b8d610af8565b5b610b9782610a50565b9050602081019050919050565b82818337600083830152505050565b6000610bc6610bc184610b73565b610b58565b905082815260208101848484011115610be257610be1610af3565b5b610bed848285610ba4565b509392505050565b600082601f830112610c0a57610c09610aee565b5b8135610c1a848260208601610bb3565b91505092915050565b60008060408385031215610c3a57610c3961099d565b5b600083013567ffffffffffffffff811115610c5857610c576109a2565b5b610c6485828601610bf5565b925050602083013567ffffffffffffffff811115610c8557610c846109a2565b5b610c9185828601610bf5565b9150509250929050565b6000602082019050610cb06000830184610a9a565b92915050565b600081519050919050565b600082825260208201905092915050565b6000819050602082019050919050565b600082825260208201905092915050565b6000610cfe82610a0a565b610d088185610ce2565b9350610d18818560208601610a26565b610d2181610a50565b840191505092915050565b6000610d388383610cf3565b905092915050565b6000602082019050919050565b6000610d5882610cb6565b610d628185610cc1565b935083602082028501610d7485610cd2565b8060005b85811015610db05784840389528151610d918582610d2c565b9450610d9c83610d40565b925060208a01995050600181019050610d78565b50829750879550505050505092915050565b600081519050919050565b600082825260208201905092915050565b6000819050602082019050919050565b610df7816109a7565b82525050565b6000610e098383610dee565b60208301905092915050565b6000602082019050919050565b6000610e2d82610dc2565b610e378185610dcd565b9350610e4283610dde565b8060005b83811015610e73578151610e5a8882610dfd565b9750610e6583610e15565b925050600181019050610e46565b5085935050505092915050565b60006060820190508181036000830152610e9a8186610d4d565b90508181036020830152610eae8185610d4d565b90508181036040830152610ec28184610e22565b9050949350505050565b600073ffffffffffffffffffffffffffffffffffffffff82169050919050565b6000610ef782610ecc565b9050919050565b610f0781610eec565b8114610f1257600080fd5b50565b600081359050610f2481610efe565b92915050565b600060208284031215610f4057610f3f61099d565b5b6000610f4e84828501610f15565b91505092915050565b60008115159050919050565b610f6c81610f57565b82525050565b6000602082019050610f876000830184610f63565b92915050565b60006020820190508181036000830152610fa78184610a61565b905092915050565b7f596f75206861766520616c726561647920766f7465642e000000000000000000600082015250565b6000610fe5601783610a15565b9150610ff082610faf565b602082019050919050565b6000602082019050818103600083015261101481610fd8565b9050919050565b7f496e76616c69642063616e64696461746520696e6465782e0000000000000000600082015250565b6000611051601883610a15565b915061105c8261101b565b602082019050919050565b6000602082019050818103600083015261108081611044565b9050919050565b7f4e487b7100000000000000000000000000000000000000000000000000000000600052603260045260246000fd5b7f4e487b7100000000000000000000000000000000000000000000000000000000600052601160045260246000fd5b60006110f0826109a7565b91507fffffffffffffffffffffffffffffffffffffffffffffffffffffffffffffffff8203611122576111216110b6565b5b600182019050919050565b7f4e487b7100000000000000000000000000000000000000000000000000000000600052602260045260246000fd5b6000600282049050600182168061117457607f821691505b6020821081036111875761118661112d565b5b50919050565b60008190508160005260206000209050919050565b60006020601f8301049050919050565b600082821b905092915050565b6000600883026111ef7fffffffffffffffffffffffffffffffffffffffffffffffffffffffffffffffff826111b2565b6111f986836111b2565b95508019841693508086168417925050509392505050565b6000819050919050565b600061123661123161122c846109a7565b611211565b6109a7565b9050919050565b6000819050919050565b6112508361121b565b61126461125c8261123d565b8484546111bf565b825550505050565b600090565b61127961126c565b611284818484611247565b505050565b5b818110156112a85761129d600082611271565b60018101905061128a565b5050565b601f8211156112ed576112be8161118d565b6112c7846111a2565b810160208510156112d6578190505b6112ea6112e2856111a2565b830182611289565b50505b505050565b600082821c905092915050565b6000611310600019846008026112f2565b1980831691505092915050565b600061132983836112ff565b9150826002028217905092915050565b61134282610a0a565b67ffffffffffffffff81111561135b5761135a610af8565b5b611365825461115c565b6113708282856112ac565b600060209050601f8311600181146113a35760008415611391578287015190505b61139b858261131d565b865550611403565b601f1984166113b18661118d565b60005b828110156113d9578489015182556001820191506020850194506020810190506113b4565b868310156113f657848901516113f2601f8916826112ff565b8355505b6001600288020188555050505b505050505050565b600060408201905081810360008301526114258185610a61565b905081810360208301526114398184610a61565b9050939250505056fea2646970667358221220bc176bdfdbeadaf6864a306fc906df18131f9398fdae64def3a73b822cc0495364736f6c63430008180033",
  "linkReferences": {},
  "deployedLinkReferences": {}
}