{
  "_format": "hh-sol-artifact-1",
  "contractName": "Voting",
  "sourceName": "contracts/Voting.sol",
  "abi": [
    {
      "anonymous": false,
      "inputs": [
        {
          "indexed": false,
          "internalType": "string",
          "name": "proposalName",
          "type": "string"
        },
        {
          "indexed": false,
          "internalType": "string",
          "name": "proposalImage",
          "type": "string"
        }
      ],
      "name": "ProposalAdded",
      "type": "event"
    },
    {
      "anonymous": false,
      "inputs": [
        {
          "indexed": false,
          "internalType": "uint256",
          "name": "proposalIndex",
          "type": "uint256"
        }
      ],
      "name": "ProposalDeleted",
      "type": "event"
    },
    {
      "inputs": [
        {
          "internalType": "string",
          "name": "proposalName",
          "type": "string"
        },
        {
          "internalType": "string",
          "name": "proposalImage",
          "type": "string"
        }
      ],
      "name": "addProposal",
      "outputs": [],
      "stateMutability": "nonpayable",
      "type": "function"
    },
    {
      "inputs": [
        {
          "internalType": "uint256",
          "name": "_proposalIndex",
          "type": "uint256"
        }
      ],
      "name": "deleteProposal",
      "outputs": [],
      "stateMutability": "nonpayable",
      "type": "function"
    },
    {
      "inputs": [],
      "name": "getProposals",
      "outputs": [
        {
          "internalType": "string[]",
          "name": "names",
          "type": "string[]"
        },
        {
          "internalType": "string[]",
          "name": "images",
          "type": "string[]"
        },
        {
          "internalType": "uint256[]",
          "name": "voteCounts",
          "type": "uint256[]"
        }
      ],
      "stateMutability": "view",
      "type": "function"
    },
    {
      "inputs": [
        {
          "internalType": "uint256",
          "name": "",
          "type": "uint256"
        }
      ],
      "name": "proposals",
      "outputs": [
        {
          "internalType": "string",
          "name": "name",
          "type": "string"
        },
        {
          "internalType": "string",
          "name": "image",
          "type": "string"
        },
        {
          "internalType": "uint256",
          "name": "voteCount",
          "type": "uint256"
        }
      ],
      "stateMutability": "view",
      "type": "function"
    },
    {
      "inputs": [
        {
          "internalType": "uint256",
          "name": "_candidateIndex",
          "type": "uint256"
        }
      ],
      "name": "vote",
      "outputs": [],
      "stateMutability": "nonpayable",
      "type": "function"
    },
    {
      "inputs": [
        {
          "internalType": "address",
          "name": "",
          "type": "address"
        }
      ],
      "name": "voters",
      "outputs": [
        {
          "internalType": "bool",
          "name": "",
          "type": "bool"
        }
      ],
      "stateMutability": "view",
      "type": "function"
    },
    {
      "inputs": [],
      "name": "winnerName",
      "outputs": [
        {
          "internalType": "string",
          "name": "winnerName_",
          "type": "string"
        }
      ],
      "stateMutability": "view",
      "type": "function"
    },
    {
      "inputs": [],
      "name": "winningProposal",
      "outputs": [
        {
          "internalType": "uint256",
          "name": "winningProposal_",
          "type": "uint256"
        }
      ],
      "stateMutability": "view",
      "type": "function"
    }
  ],
  "bytecode": "0x608060405234801561001057600080fd5b506117a2806100206000396000f3fe608060405234801561001057600080fd5b50600436106100885760003560e01c806362564c481161005b57806362564c48146101155780638259d55314610135578063a3ec138d14610151578063e2ba53f01461018157610088565b80630121b93f1461008d578063013cf08b146100a957806323d1c95e146100db578063609ff1bd146100f7575b600080fd5b6100a760048036038101906100a29190610b3a565b61019f565b005b6100c360048036038101906100be9190610b3a565b610307565b6040516100d293929190610c06565b60405180910390f35b6100f560048036038101906100f09190610d80565b610451565b005b6100ff61050d565b60405161010c9190610df8565b60405180910390f35b61011d61058f565b60405161012c93929190610fdd565b60405180910390f35b61014f600480360381019061014a9190610b3a565b610852565b005b61016b60048036038101906101669190611087565b6109b7565b60405161017891906110cf565b60405180910390f35b6101896109d7565b60405161019691906110ea565b60405180910390f35b6000803373ffffffffffffffffffffffffffffffffffffffff1673ffffffffffffffffffffffffffffffffffffffff16815260200190815260200160002060009054906101000a900460ff161561022b576040517f08c379a000000000000000000000000000000000000000000000000000000000815260040161022290611158565b60405180910390fd5b6001805490508110610272576040517f08c379a0000000000000000000000000000000000000000000000000000000008152600401610269906111c4565b60405180910390fd5b60018181548110610286576102856111e4565b5b906000526020600020906003020160020160008154809291906102a890611242565b919050555060016000803373ffffffffffffffffffffffffffffffffffffffff1673ffffffffffffffffffffffffffffffffffffffff16815260200190815260200160002060006101000a81548160ff02191690831515021790555050565b6001818154811061031757600080fd5b906000526020600020906003020160009150905080600001805461033a906112b9565b80601f0160208091040260200160405190810160405280929190818152602001828054610366906112b9565b80156103b35780601f10610388576101008083540402835291602001916103b3565b820191906000526020600020905b81548152906001019060200180831161039657829003601f168201915b5050505050908060010180546103c8906112b9565b80601f01602080910402602001604051908101604052809291908181526020018280546103f4906112b9565b80156104415780601f1061041657610100808354040283529160200191610441565b820191906000526020600020905b81548152906001019060200180831161042457829003601f168201915b5050505050908060020154905083565b600160405180606001604052808481526020018381526020016000815250908060018154018082558091505060019003906000526020600020906003020160009091909190915060008201518160000190816104ad9190611496565b5060208201518160010190816104c39190611496565b506040820151816002015550507fe02ccca479e1173328e2dd02b3dc0d2bc08593f7d06756def0dc51decc0c14188282604051610501929190611568565b60405180910390a15050565b6000806000905060005b60018054905081101561058a578160018281548110610539576105386111e4565b5b906000526020600020906003020160020154111561057d5760018181548110610565576105646111e4565b5b90600052602060002090600302016002015491508092505b8080600101915050610517565b505090565b606080606060018054905067ffffffffffffffff8111156105b3576105b2610c55565b5b6040519080825280602002602001820160405280156105e657816020015b60608152602001906001900390816105d15790505b50925060018054905067ffffffffffffffff81111561060857610607610c55565b5b60405190808252806020026020018201604052801561063b57816020015b60608152602001906001900390816106265790505b50915060018054905067ffffffffffffffff81111561065d5761065c610c55565b5b60405190808252806020026020018201604052801561068b5781602001602082028036833780820191505090505b50905060005b60018054905081101561084c576000600182815481106106b4576106b36111e4565b5b906000526020600020906003020190508060000180546106d3906112b9565b80601f01602080910402602001604051908101604052809291908181526020018280546106ff906112b9565b801561074c5780601f106107215761010080835404028352916020019161074c565b820191906000526020600020905b81548152906001019060200180831161072f57829003601f168201915b5050505050858381518110610764576107636111e4565b5b602002602001018190525080600101805461077e906112b9565b80601f01602080910402602001604051908101604052809291908181526020018280546107aa906112b9565b80156107f75780601f106107cc576101008083540402835291602001916107f7565b820191906000526020600020905b8154815290600101906020018083116107da57829003601f168201915b505050505084838151811061080f5761080e6111e4565b5b60200260200101819052508060020154838381518110610832576108316111e4565b5b602002602001018181525050508080600101915050610691565b50909192565b6001805490508110610899576040517f08c379a0000000000000000000000000000000000000000000000000000000008152600401610890906115eb565b60405180910390fd5b6000600180805490506108ac919061160b565b9050600181815481106108c2576108c16111e4565b5b9060005260206000209060030201600183815481106108e4576108e36111e4565b5b9060005260206000209060030201600082018160000190816109069190611655565b506001820181600101908161091b9190611655565b5060028201548160020155905050600180548061093b5761093a61173d565b5b6001900381819060005260206000209060030201600080820160006109609190610a93565b6001820160006109709190610a93565b6002820160009055505090557f61c0d93dc2b610877e420b107c8d12e9185e46e04a505da758cc7f7329ae545f826040516109ab9190610df8565b60405180910390a15050565b60006020528060005260406000206000915054906101000a900460ff1681565b606060016109e361050d565b815481106109f4576109f36111e4565b5b90600052602060002090600302016000018054610a10906112b9565b80601f0160208091040260200160405190810160405280929190818152602001828054610a3c906112b9565b8015610a895780601f10610a5e57610100808354040283529160200191610a89565b820191906000526020600020905b815481529060010190602001808311610a6c57829003601f168201915b5050505050905090565b508054610a9f906112b9565b6000825580601f10610ab15750610ad0565b601f016020900490600052602060002090810190610acf9190610ad3565b5b50565b5b80821115610aec576000816000905550600101610ad4565b5090565b6000604051905090565b600080fd5b600080fd5b6000819050919050565b610b1781610b04565b8114610b2257600080fd5b50565b600081359050610b3481610b0e565b92915050565b600060208284031215610b5057610b4f610afa565b5b6000610b5e84828501610b25565b91505092915050565b600081519050919050565b600082825260208201905092915050565b60005b83811015610ba1578082015181840152602081019050610b86565b60008484015250505050565b6000601f19601f8301169050919050565b6000610bc982610b67565b610bd38185610b72565b9350610be3818560208601610b83565b610bec81610bad565b840191505092915050565b610c0081610b04565b82525050565b60006060820190508181036000830152610c208186610bbe565b90508181036020830152610c348185610bbe565b9050610c436040830184610bf7565b949350505050565b600080fd5b600080fd5b7f4e487b7100000000000000000000000000000000000000000000000000000000600052604160045260246000fd5b610c8d82610bad565b810181811067ffffffffffffffff82111715610cac57610cab610c55565b5b80604052505050565b6000610cbf610af0565b9050610ccb8282610c84565b919050565b600067ffffffffffffffff821115610ceb57610cea610c55565b5b610cf482610bad565b9050602081019050919050565b82818337600083830152505050565b6000610d23610d1e84610cd0565b610cb5565b905082815260208101848484011115610d3f57610d3e610c50565b5b610d4a848285610d01565b509392505050565b600082601f830112610d6757610d66610c4b565b5b8135610d77848260208601610d10565b91505092915050565b60008060408385031215610d9757610d96610afa565b5b600083013567ffffffffffffffff811115610db557610db4610aff565b5b610dc185828601610d52565b925050602083013567ffffffffffffffff811115610de257610de1610aff565b5b610dee85828601610d52565b9150509250929050565b6000602082019050610e0d6000830184610bf7565b92915050565b600081519050919050565b600082825260208201905092915050565b6000819050602082019050919050565b600082825260208201905092915050565b6000610e5b82610b67565b610e658185610e3f565b9350610e75818560208601610b83565b610e7e81610bad565b840191505092915050565b6000610e958383610e50565b905092915050565b6000602082019050919050565b6000610eb582610e13565b610ebf8185610e1e565b935083602082028501610ed185610e2f565b8060005b85811015610f0d5784840389528151610eee8582610e89565b9450610ef983610e9d565b925060208a01995050600181019050610ed5565b50829750879550505050505092915050565b600081519050919050565b600082825260208201905092915050565b6000819050602082019050919050565b610f5481610b04565b82525050565b6000610f668383610f4b565b60208301905092915050565b6000602082019050919050565b6000610f8a82610f1f565b610f948185610f2a565b9350610f9f83610f3b565b8060005b83811015610fd0578151610fb78882610f5a565b9750610fc283610f72565b925050600181019050610fa3565b5085935050505092915050565b60006060820190508181036000830152610ff78186610eaa565b9050818103602083015261100b8185610eaa565b9050818103604083015261101f8184610f7f565b9050949350505050565b600073ffffffffffffffffffffffffffffffffffffffff82169050919050565b600061105482611029565b9050919050565b61106481611049565b811461106f57600080fd5b50565b6000813590506110818161105b565b92915050565b60006020828403121561109d5761109c610afa565b5b60006110ab84828501611072565b91505092915050565b60008115159050919050565b6110c9816110b4565b82525050565b60006020820190506110e460008301846110c0565b92915050565b600060208201905081810360008301526111048184610bbe565b905092915050565b7f596f75206861766520616c726561647920766f7465642e000000000000000000600082015250565b6000611142601783610b72565b915061114d8261110c565b602082019050919050565b6000602082019050818103600083015261117181611135565b9050919050565b7f496e76616c69642063616e64696461746520696e6465782e0000000000000000600082015250565b60006111ae601883610b72565b91506111b982611178565b602082019050919050565b600060208201905081810360008301526111dd816111a1565b9050919050565b7f4e487b7100000000000000000000000000000000000000000000000000000000600052603260045260246000fd5b7f4e487b7100000000000000000000000000000000000000000000000000000000600052601160045260246000fd5b600061124d82610b04565b91507fffffffffffffffffffffffffffffffffffffffffffffffffffffffffffffffff820361127f5761127e611213565b5b600182019050919050565b7f4e487b7100000000000000000000000000000000000000000000000000000000600052602260045260246000fd5b600060028204905060018216806112d157607f821691505b6020821081036112e4576112e361128a565b5b50919050565b60008190508160005260206000209050919050565b60006020601f8301049050919050565b600082821b905092915050565b60006008830261134c7fffffffffffffffffffffffffffffffffffffffffffffffffffffffffffffffff8261130f565b611356868361130f565b95508019841693508086168417925050509392505050565b6000819050919050565b600061139361138e61138984610b04565b61136e565b610b04565b9050919050565b6000819050919050565b6113ad83611378565b6113c16113b98261139a565b84845461131c565b825550505050565b600090565b6113d66113c9565b6113e18184846113a4565b505050565b5b81811015611405576113fa6000826113ce565b6001810190506113e7565b5050565b601f82111561144a5761141b816112ea565b611424846112ff565b81016020851015611433578190505b61144761143f856112ff565b8301826113e6565b50505b505050565b600082821c905092915050565b600061146d6000198460080261144f565b1980831691505092915050565b6000611486838361145c565b9150826002028217905092915050565b61149f82610b67565b67ffffffffffffffff8111156114b8576114b7610c55565b5b6114c282546112b9565b6114cd828285611409565b600060209050601f83116001811461150057600084156114ee578287015190505b6114f8858261147a565b865550611560565b601f19841661150e866112ea565b60005b8281101561153657848901518255600182019150602085019450602081019050611511565b86831015611553578489015161154f601f89168261145c565b8355505b6001600288020188555050505b505050505050565b600060408201905081810360008301526115828185610bbe565b905081810360208301526115968184610bbe565b90509392505050565b7f496e76616c69642070726f706f73616c20696e64657800000000000000000000600082015250565b60006115d5601683610b72565b91506115e08261159f565b602082019050919050565b60006020820190508181036000830152611604816115c8565b9050919050565b600061161682610b04565b915061162183610b04565b925082820390508181111561163957611638611213565b5b92915050565b60008154905061164e816112b9565b9050919050565b81810361166357505061173b565b61166c8261163f565b67ffffffffffffffff81111561168557611684610c55565b5b61168f82546112b9565b61169a828285611409565b6000601f8311600181146116c957600084156116b7578287015490505b6116c1858261147a565b865550611734565b601f1984166116d7876112ea565b96506116e2866112ea565b60005b8281101561170a578489015482556001820191506001850194506020810190506116e5565b868310156117275784890154611723601f89168261145c565b8355505b6001600288020188555050505b5050505050505b565b7f4e487b7100000000000000000000000000000000000000000000000000000000600052603160045260246000fdfea26469706673582212208c0a46afe624ed1a68e8f26903f29e70be4eeb616828b57ad9f363d833c1f77564736f6c63430008180033",
  "linkReferences": {},
  "deployedLinkReferences": {}
}